{
  "_format": "hh-sol-artifact-1",
  "contractName": "Arb",
  "sourceName": "contracts/Arb.sol",
  "abi": [
    {
      "anonymous": false,
      "inputs": [
        {
          "indexed": true,
          "internalType": "address",
          "name": "previousOwner",
          "type": "address"
        },
        {
          "indexed": true,
          "internalType": "address",
          "name": "newOwner",
          "type": "address"
        }
      ],
      "name": "OwnershipTransferred",
      "type": "event"
    },
    {
      "inputs": [
        {
          "internalType": "address",
          "name": "_router1",
          "type": "address"
        },
        {
          "internalType": "address",
          "name": "_router2",
          "type": "address"
        },
        {
          "internalType": "address",
          "name": "_token1",
          "type": "address"
        },
        {
          "internalType": "address",
          "name": "_token2",
          "type": "address"
        },
        {
          "internalType": "uint256",
          "name": "_amount",
          "type": "uint256"
        }
      ],
      "name": "dualDexTrade",
      "outputs": [],
      "stateMutability": "nonpayable",
      "type": "function"
    },
    {
      "inputs": [
        {
          "internalType": "address",
          "name": "_router1",
          "type": "address"
        },
        {
          "internalType": "address",
          "name": "_router2",
          "type": "address"
        },
        {
          "internalType": "address",
          "name": "_token1",
          "type": "address"
        },
        {
          "internalType": "address",
          "name": "_token2",
          "type": "address"
        },
        {
          "internalType": "uint256",
          "name": "_amount",
          "type": "uint256"
        }
      ],
      "name": "estimateDualDexTrade",
      "outputs": [
        {
          "internalType": "uint256",
          "name": "",
          "type": "uint256"
        }
      ],
      "stateMutability": "view",
      "type": "function"
    },
    {
      "inputs": [
        {
          "internalType": "address",
          "name": "router",
          "type": "address"
        },
        {
          "internalType": "address",
          "name": "_tokenIn",
          "type": "address"
        },
        {
          "internalType": "address",
          "name": "_tokenOut",
          "type": "address"
        },
        {
          "internalType": "uint256",
          "name": "_amount",
          "type": "uint256"
        }
      ],
      "name": "getAmountOutMin",
      "outputs": [
        {
          "internalType": "uint256",
          "name": "",
          "type": "uint256"
        }
      ],
      "stateMutability": "view",
      "type": "function"
    },
    {
      "inputs": [
        {
          "internalType": "address",
          "name": "_tokenContractAddress",
          "type": "address"
        }
      ],
      "name": "getBalance",
      "outputs": [
        {
          "internalType": "uint256",
          "name": "",
          "type": "uint256"
        }
      ],
      "stateMutability": "view",
      "type": "function"
    },
    {
      "inputs": [],
      "name": "owner",
      "outputs": [
        {
          "internalType": "address",
          "name": "",
          "type": "address"
        }
      ],
      "stateMutability": "view",
      "type": "function"
    },
    {
      "inputs": [],
      "name": "recoverEth",
      "outputs": [],
      "stateMutability": "nonpayable",
      "type": "function"
    },
    {
      "inputs": [
        {
          "internalType": "address",
          "name": "tokenAddress",
          "type": "address"
        }
      ],
      "name": "recoverTokens",
      "outputs": [],
      "stateMutability": "nonpayable",
      "type": "function"
    },
    {
      "inputs": [],
      "name": "renounceOwnership",
      "outputs": [],
      "stateMutability": "nonpayable",
      "type": "function"
    },
    {
      "inputs": [
        {
          "internalType": "address",
          "name": "newOwner",
          "type": "address"
        }
      ],
      "name": "transferOwnership",
      "outputs": [],
      "stateMutability": "nonpayable",
      "type": "function"
    },
    {
      "stateMutability": "payable",
      "type": "receive"
    }
  ],
  "bytecode": "0x608060405234801561001057600080fd5b5061002d61002261003260201b60201c565b61003a60201b60201c565b6100fe565b600033905090565b60008060009054906101000a900473ffffffffffffffffffffffffffffffffffffffff169050816000806101000a81548173ffffffffffffffffffffffffffffffffffffffff021916908373ffffffffffffffffffffffffffffffffffffffff1602179055508173ffffffffffffffffffffffffffffffffffffffff168173ffffffffffffffffffffffffffffffffffffffff167f8be0079c531659141344cd1fd0a4f28419497f9722a3daafe3b4186f6b6457e060405160405180910390a35050565b6115938061010d6000396000f3fe60806040526004361061008a5760003560e01c8063715018a611610059578063715018a6146101625780638da5cb5b14610179578063bcdb446b146101a4578063f2fde38b146101bb578063f8b2cb4f146101e457610091565b8063068e7ca11461009657806316114acd146100d35780631aa51318146100fc57806343cf6f241461012557610091565b3661009157005b600080fd5b3480156100a257600080fd5b506100bd60048036038101906100b89190610e2c565b610221565b6040516100ca9190611170565b60405180910390f35b3480156100df57600080fd5b506100fa60048036038101906100f59190610dff565b610250565b005b34801561010857600080fd5b50610123600480360381019061011e9190610e2c565b61037e565b005b34801561013157600080fd5b5061014c60048036038101906101479190610ea7565b610630565b6040516101599190611170565b60405180910390f35b34801561016e57600080fd5b506101776107e5565b005b34801561018557600080fd5b5061018e6107f9565b60405161019b91906110cc565b60405180910390f35b3480156101b057600080fd5b506101b9610822565b005b3480156101c757600080fd5b506101e260048036038101906101dd9190610dff565b61087a565b005b3480156101f057600080fd5b5061020b60048036038101906102069190610dff565b6108fe565b6040516102189190611170565b60405180910390f35b60008061023087868686610630565b9050600061024087868885610630565b9050809250505095945050505050565b610258610995565b60008190508073ffffffffffffffffffffffffffffffffffffffff1663a9059cbb6102816107f9565b8373ffffffffffffffffffffffffffffffffffffffff166370a08231306040518263ffffffff1660e01b81526004016102ba91906110cc565b60206040518083038186803b1580156102d257600080fd5b505afa1580156102e6573d6000803e3d6000fd5b505050506040513d601f19601f8201168201806040525081019061030a9190610f84565b6040518363ffffffff1660e01b81526004016103279291906110e7565b602060405180830381600087803b15801561034157600080fd5b505af1158015610355573d6000803e3d6000fd5b505050506040513d601f19601f820116820180604052508101906103799190610f57565b505050565b610386610995565b60008373ffffffffffffffffffffffffffffffffffffffff166370a08231306040518263ffffffff1660e01b81526004016103c191906110cc565b60206040518083038186803b1580156103d957600080fd5b505afa1580156103ed573d6000803e3d6000fd5b505050506040513d601f19601f820116820180604052508101906104119190610f84565b905060008373ffffffffffffffffffffffffffffffffffffffff166370a08231306040518263ffffffff1660e01b815260040161044e91906110cc565b60206040518083038186803b15801561046657600080fd5b505afa15801561047a573d6000803e3d6000fd5b505050506040513d601f19601f8201168201806040525081019061049e9190610f84565b90506104ac87868686610a13565b60008473ffffffffffffffffffffffffffffffffffffffff166370a08231306040518263ffffffff1660e01b81526004016104e791906110cc565b60206040518083038186803b1580156104ff57600080fd5b505afa158015610513573d6000803e3d6000fd5b505050506040513d601f19601f820116820180604052508101906105379190610f84565b9050600082826105479190611306565b905061055588878984610a13565b60008773ffffffffffffffffffffffffffffffffffffffff166370a08231306040518263ffffffff1660e01b815260040161059091906110cc565b60206040518083038186803b1580156105a857600080fd5b505afa1580156105bc573d6000803e3d6000fd5b505050506040513d601f19601f820116820180604052508101906105e09190610f84565b9050848111610624576040517f08c379a000000000000000000000000000000000000000000000000000000000815260040161061b90611130565b60405180910390fd5b50505050505050505050565b600080600267ffffffffffffffff81111561064e5761064d611423565b5b60405190808252806020026020018201604052801561067c5781602001602082028036833780820191505090505b5090508481600081518110610694576106936113f4565b5b602002602001019073ffffffffffffffffffffffffffffffffffffffff16908173ffffffffffffffffffffffffffffffffffffffff168152505083816001815181106106e3576106e26113f4565b5b602002602001019073ffffffffffffffffffffffffffffffffffffffff16908173ffffffffffffffffffffffffffffffffffffffff168152505060008673ffffffffffffffffffffffffffffffffffffffff1663d06ca61f85846040518363ffffffff1660e01b815260040161075a92919061118b565b60006040518083038186803b15801561077257600080fd5b505afa158015610786573d6000803e3d6000fd5b505050506040513d6000823e3d601f19601f820116820180604052508101906107af9190610f0e565b905080600183516107c09190611306565b815181106107d1576107d06113f4565b5b602002602001015192505050949350505050565b6107ed610995565b6107f76000610c41565b565b60008060009054906101000a900473ffffffffffffffffffffffffffffffffffffffff16905090565b61082a610995565b6108326107f9565b73ffffffffffffffffffffffffffffffffffffffff166108fc479081150290604051600060405180830381858888f19350505050158015610877573d6000803e3d6000fd5b50565b610882610995565b600073ffffffffffffffffffffffffffffffffffffffff168173ffffffffffffffffffffffffffffffffffffffff1614156108f2576040517f08c379a00000000000000000000000000000000000000000000000000000000081526004016108e990611110565b60405180910390fd5b6108fb81610c41565b50565b6000808273ffffffffffffffffffffffffffffffffffffffff166370a08231306040518263ffffffff1660e01b815260040161093a91906110cc565b60206040518083038186803b15801561095257600080fd5b505afa158015610966573d6000803e3d6000fd5b505050506040513d601f19601f8201168201806040525081019061098a9190610f84565b905080915050919050565b61099d610d05565b73ffffffffffffffffffffffffffffffffffffffff166109bb6107f9565b73ffffffffffffffffffffffffffffffffffffffff1614610a11576040517f08c379a0000000000000000000000000000000000000000000000000000000008152600401610a0890611150565b60405180910390fd5b565b8273ffffffffffffffffffffffffffffffffffffffff1663095ea7b385836040518363ffffffff1660e01b8152600401610a4e9291906110e7565b602060405180830381600087803b158015610a6857600080fd5b505af1158015610a7c573d6000803e3d6000fd5b505050506040513d601f19601f82011682018060405250810190610aa09190610f57565b506000600267ffffffffffffffff811115610abe57610abd611423565b5b604051908082528060200260200182016040528015610aec5781602001602082028036833780820191505090505b5090508381600081518110610b0457610b036113f4565b5b602002602001019073ffffffffffffffffffffffffffffffffffffffff16908173ffffffffffffffffffffffffffffffffffffffff16815250508281600181518110610b5357610b526113f4565b5b602002602001019073ffffffffffffffffffffffffffffffffffffffff16908173ffffffffffffffffffffffffffffffffffffffff1681525050600061012c42610b9d91906112b0565b90508573ffffffffffffffffffffffffffffffffffffffff166338ed17398460018530866040518663ffffffff1660e01b8152600401610be19594939291906111bb565b600060405180830381600087803b158015610bfb57600080fd5b505af1158015610c0f573d6000803e3d6000fd5b505050506040513d6000823e3d601f19601f82011682018060405250810190610c389190610f0e565b50505050505050565b60008060009054906101000a900473ffffffffffffffffffffffffffffffffffffffff169050816000806101000a81548173ffffffffffffffffffffffffffffffffffffffff021916908373ffffffffffffffffffffffffffffffffffffffff1602179055508173ffffffffffffffffffffffffffffffffffffffff168173ffffffffffffffffffffffffffffffffffffffff167f8be0079c531659141344cd1fd0a4f28419497f9722a3daafe3b4186f6b6457e060405160405180910390a35050565b600033905090565b6000610d20610d1b8461123a565b611215565b90508083825260208201905082856020860282011115610d4357610d42611457565b5b60005b85811015610d735781610d598882610dea565b845260208401935060208301925050600181019050610d46565b5050509392505050565b600081359050610d8c81611518565b92915050565b600082601f830112610da757610da6611452565b5b8151610db7848260208601610d0d565b91505092915050565b600081519050610dcf8161152f565b92915050565b600081359050610de481611546565b92915050565b600081519050610df981611546565b92915050565b600060208284031215610e1557610e14611461565b5b6000610e2384828501610d7d565b91505092915050565b600080600080600060a08688031215610e4857610e47611461565b5b6000610e5688828901610d7d565b9550506020610e6788828901610d7d565b9450506040610e7888828901610d7d565b9350506060610e8988828901610d7d565b9250506080610e9a88828901610dd5565b9150509295509295909350565b60008060008060808587031215610ec157610ec0611461565b5b6000610ecf87828801610d7d565b9450506020610ee087828801610d7d565b9350506040610ef187828801610d7d565b9250506060610f0287828801610dd5565b91505092959194509250565b600060208284031215610f2457610f23611461565b5b600082015167ffffffffffffffff811115610f4257610f4161145c565b5b610f4e84828501610d92565b91505092915050565b600060208284031215610f6d57610f6c611461565b5b6000610f7b84828501610dc0565b91505092915050565b600060208284031215610f9a57610f99611461565b5b6000610fa884828501610dea565b91505092915050565b6000610fbd8383610fc9565b60208301905092915050565b610fd28161133a565b82525050565b610fe18161133a565b82525050565b6000610ff282611276565b610ffc818561128e565b935061100783611266565b8060005b8381101561103857815161101f8882610fb1565b975061102a83611281565b92505060018101905061100b565b5085935050505092915050565b61104e81611382565b82525050565b600061106160268361129f565b915061106c82611477565b604082019050919050565b6000611084601e8361129f565b915061108f826114c6565b602082019050919050565b60006110a760208361129f565b91506110b2826114ef565b602082019050919050565b6110c681611378565b82525050565b60006020820190506110e16000830184610fd8565b92915050565b60006040820190506110fc6000830185610fd8565b61110960208301846110bd565b9392505050565b6000602082019050818103600083015261112981611054565b9050919050565b6000602082019050818103600083015261114981611077565b9050919050565b600060208201905081810360008301526111698161109a565b9050919050565b600060208201905061118560008301846110bd565b92915050565b60006040820190506111a060008301856110bd565b81810360208301526111b28184610fe7565b90509392505050565b600060a0820190506111d060008301886110bd565b6111dd6020830187611045565b81810360408301526111ef8186610fe7565b90506111fe6060830185610fd8565b61120b60808301846110bd565b9695505050505050565b600061121f611230565b905061122b8282611394565b919050565b6000604051905090565b600067ffffffffffffffff82111561125557611254611423565b5b602082029050602081019050919050565b6000819050602082019050919050565b600081519050919050565b6000602082019050919050565b600082825260208201905092915050565b600082825260208201905092915050565b60006112bb82611378565b91506112c683611378565b9250827fffffffffffffffffffffffffffffffffffffffffffffffffffffffffffffffff038211156112fb576112fa6113c5565b5b828201905092915050565b600061131182611378565b915061131c83611378565b92508282101561132f5761132e6113c5565b5b828203905092915050565b600061134582611358565b9050919050565b60008115159050919050565b600073ffffffffffffffffffffffffffffffffffffffff82169050919050565b6000819050919050565b600061138d82611378565b9050919050565b61139d82611466565b810181811067ffffffffffffffff821117156113bc576113bb611423565b5b80604052505050565b7f4e487b7100000000000000000000000000000000000000000000000000000000600052601160045260246000fd5b7f4e487b7100000000000000000000000000000000000000000000000000000000600052603260045260246000fd5b7f4e487b7100000000000000000000000000000000000000000000000000000000600052604160045260246000fd5b600080fd5b600080fd5b600080fd5b600080fd5b6000601f19601f8301169050919050565b7f4f776e61626c653a206e6577206f776e657220697320746865207a65726f206160008201527f6464726573730000000000000000000000000000000000000000000000000000602082015250565b7f54726164652052657665727465642c204e6f2050726f666974204d6164650000600082015250565b7f4f776e61626c653a2063616c6c6572206973206e6f7420746865206f776e6572600082015250565b6115218161133a565b811461152c57600080fd5b50565b6115388161134c565b811461154357600080fd5b50565b61154f81611378565b811461155a57600080fd5b5056fea2646970667358221220a4810004017ac838c265eba38f650f949bb8564014838ad253f18b6393dc4e5a64736f6c63430008070033",
  "linkReferences": {},
  "deployedLinkReferences": {}
}