{
  "_format": "hh-sol-artifact-1",
  "contractName": "InstaArb",
  "sourceName": "contracts/InstaArb.sol",
  "abi": [
    {
      "inputs": [],
      "stateMutability": "nonpayable",
      "type": "constructor"
    },
    {
      "anonymous": false,
      "inputs": [
        {
          "indexed": true,
          "internalType": "address",
          "name": "previousOwner",
          "type": "address"
        },
        {
          "indexed": true,
          "internalType": "address",
          "name": "newOwner",
          "type": "address"
        }
      ],
      "name": "OwnershipTransferred",
      "type": "event"
    },
    {
      "inputs": [
        {
          "internalType": "address[]",
          "name": "_routers",
          "type": "address[]"
        }
      ],
      "name": "addRouters",
      "outputs": [],
      "stateMutability": "nonpayable",
      "type": "function"
    },
    {
      "inputs": [
        {
          "internalType": "address[]",
          "name": "_stables",
          "type": "address[]"
        }
      ],
      "name": "addStables",
      "outputs": [],
      "stateMutability": "nonpayable",
      "type": "function"
    },
    {
      "inputs": [
        {
          "internalType": "address[]",
          "name": "_tokens",
          "type": "address[]"
        }
      ],
      "name": "addTokens",
      "outputs": [],
      "stateMutability": "nonpayable",
      "type": "function"
    },
    {
      "inputs": [
        {
          "internalType": "address",
          "name": "router",
          "type": "address"
        },
        {
          "internalType": "address",
          "name": "_tokenIn",
          "type": "address"
        },
        {
          "internalType": "address",
          "name": "_tokenOut",
          "type": "address"
        },
        {
          "internalType": "uint256",
          "name": "_amount",
          "type": "uint256"
        }
      ],
      "name": "getAmountOutMin",
      "outputs": [
        {
          "internalType": "uint256",
          "name": "",
          "type": "uint256"
        }
      ],
      "stateMutability": "view",
      "type": "function"
    },
    {
      "inputs": [],
      "name": "owner",
      "outputs": [
        {
          "internalType": "address",
          "name": "",
          "type": "address"
        }
      ],
      "stateMutability": "view",
      "type": "function"
    },
    {
      "inputs": [],
      "name": "renounceOwnership",
      "outputs": [],
      "stateMutability": "nonpayable",
      "type": "function"
    },
    {
      "inputs": [
        {
          "internalType": "uint256",
          "name": "",
          "type": "uint256"
        }
      ],
      "name": "routers",
      "outputs": [
        {
          "internalType": "address",
          "name": "",
          "type": "address"
        }
      ],
      "stateMutability": "view",
      "type": "function"
    },
    {
      "inputs": [
        {
          "internalType": "uint256",
          "name": "",
          "type": "uint256"
        }
      ],
      "name": "stables",
      "outputs": [
        {
          "internalType": "address",
          "name": "",
          "type": "address"
        }
      ],
      "stateMutability": "view",
      "type": "function"
    },
    {
      "inputs": [
        {
          "internalType": "uint256",
          "name": "",
          "type": "uint256"
        }
      ],
      "name": "tokens",
      "outputs": [
        {
          "internalType": "address",
          "name": "",
          "type": "address"
        }
      ],
      "stateMutability": "view",
      "type": "function"
    },
    {
      "inputs": [
        {
          "internalType": "address",
          "name": "newOwner",
          "type": "address"
        }
      ],
      "name": "transferOwnership",
      "outputs": [],
      "stateMutability": "nonpayable",
      "type": "function"
    }
  ],
  "bytecode": "0x608060405234801561001057600080fd5b5061002d61002261003260201b60201c565b61003a60201b60201c565b6100fe565b600033905090565b60008060009054906101000a900473ffffffffffffffffffffffffffffffffffffffff169050816000806101000a81548173ffffffffffffffffffffffffffffffffffffffff021916908373ffffffffffffffffffffffffffffffffffffffff1602179055508173ffffffffffffffffffffffffffffffffffffffff168173ffffffffffffffffffffffffffffffffffffffff167f8be0079c531659141344cd1fd0a4f28419497f9722a3daafe3b4186f6b6457e060405160405180910390a35050565b610fd18061010d6000396000f3fe608060405234801561001057600080fd5b506004361061009e5760003560e01c8063643aadb711610066578063643aadb71461016b578063715018a61461019b5780638da5cb5b146101a5578063c58f9ce4146101c3578063f2fde38b146101df5761009e565b806343cf6f24146100a35780634ae05c7d146100d35780634b01f85e146100ef5780634e9c11181461010b5780634f64b2be1461013b575b600080fd5b6100bd60048036038101906100b89190610a00565b6101fb565b6040516100ca9190610c6e565b60405180910390f35b6100ed60048036038101906100e89190610a67565b6103b0565b005b61010960048036038101906101049190610a67565b610468565b005b61012560048036038101906101209190610afd565b610520565b6040516101329190610c13565b60405180910390f35b61015560048036038101906101509190610afd565b61055f565b6040516101629190610c13565b60405180910390f35b61018560048036038101906101809190610afd565b61059e565b6040516101929190610c13565b60405180910390f35b6101a36105dd565b005b6101ad6105f1565b6040516101ba9190610c13565b60405180910390f35b6101dd60048036038101906101d89190610a67565b61061a565b005b6101f960048036038101906101f491906109d3565b6106d2565b005b600080600267ffffffffffffffff81111561021957610218610e9c565b5b6040519080825280602002602001820160405280156102475781602001602082028036833780820191505090505b509050848160008151811061025f5761025e610e6d565b5b602002602001019073ffffffffffffffffffffffffffffffffffffffff16908173ffffffffffffffffffffffffffffffffffffffff168152505083816001815181106102ae576102ad610e6d565b5b602002602001019073ffffffffffffffffffffffffffffffffffffffff16908173ffffffffffffffffffffffffffffffffffffffff168152505060008673ffffffffffffffffffffffffffffffffffffffff1663d06ca61f85846040518363ffffffff1660e01b8152600401610325929190610c89565b60006040518083038186803b15801561033d57600080fd5b505afa158015610351573d6000803e3d6000fd5b505050506040513d6000823e3d601f19601f8201168201806040525081019061037a9190610ab4565b9050806001835161038b9190610d54565b8151811061039c5761039b610e6d565b5b602002602001015192505050949350505050565b6103b8610756565b60005b828290508110156104635760028383838181106103db576103da610e6d565b5b90506020020160208101906103f091906109d3565b9080600181540180825580915050600190039060005260206000200160009091909190916101000a81548173ffffffffffffffffffffffffffffffffffffffff021916908373ffffffffffffffffffffffffffffffffffffffff160217905550808061045b90610df5565b9150506103bb565b505050565b610470610756565b60005b8282905081101561051b57600183838381811061049357610492610e6d565b5b90506020020160208101906104a891906109d3565b9080600181540180825580915050600190039060005260206000200160009091909190916101000a81548173ffffffffffffffffffffffffffffffffffffffff021916908373ffffffffffffffffffffffffffffffffffffffff160217905550808061051390610df5565b915050610473565b505050565b6001818154811061053057600080fd5b906000526020600020016000915054906101000a900473ffffffffffffffffffffffffffffffffffffffff1681565b6002818154811061056f57600080fd5b906000526020600020016000915054906101000a900473ffffffffffffffffffffffffffffffffffffffff1681565b600381815481106105ae57600080fd5b906000526020600020016000915054906101000a900473ffffffffffffffffffffffffffffffffffffffff1681565b6105e5610756565b6105ef60006107d4565b565b60008060009054906101000a900473ffffffffffffffffffffffffffffffffffffffff16905090565b610622610756565b60005b828290508110156106cd57600383838381811061064557610644610e6d565b5b905060200201602081019061065a91906109d3565b9080600181540180825580915050600190039060005260206000200160009091909190916101000a81548173ffffffffffffffffffffffffffffffffffffffff021916908373ffffffffffffffffffffffffffffffffffffffff16021790555080806106c590610df5565b915050610625565b505050565b6106da610756565b600073ffffffffffffffffffffffffffffffffffffffff168173ffffffffffffffffffffffffffffffffffffffff16141561074a576040517f08c379a000000000000000000000000000000000000000000000000000000000815260040161074190610c2e565b60405180910390fd5b610753816107d4565b50565b61075e610898565b73ffffffffffffffffffffffffffffffffffffffff1661077c6105f1565b73ffffffffffffffffffffffffffffffffffffffff16146107d2576040517f08c379a00000000000000000000000000000000000000000000000000000000081526004016107c990610c4e565b60405180910390fd5b565b60008060009054906101000a900473ffffffffffffffffffffffffffffffffffffffff169050816000806101000a81548173ffffffffffffffffffffffffffffffffffffffff021916908373ffffffffffffffffffffffffffffffffffffffff1602179055508173ffffffffffffffffffffffffffffffffffffffff168173ffffffffffffffffffffffffffffffffffffffff167f8be0079c531659141344cd1fd0a4f28419497f9722a3daafe3b4186f6b6457e060405160405180910390a35050565b600033905090565b60006108b36108ae84610cde565b610cb9565b905080838252602082019050828560208602820111156108d6576108d5610ed5565b5b60005b8581101561090657816108ec88826109be565b8452602084019350602083019250506001810190506108d9565b5050509392505050565b60008135905061091f81610f6d565b92915050565b60008083601f84011261093b5761093a610ed0565b5b8235905067ffffffffffffffff81111561095857610957610ecb565b5b60208301915083602082028301111561097457610973610ed5565b5b9250929050565b600082601f8301126109905761098f610ed0565b5b81516109a08482602086016108a0565b91505092915050565b6000813590506109b881610f84565b92915050565b6000815190506109cd81610f84565b92915050565b6000602082840312156109e9576109e8610edf565b5b60006109f784828501610910565b91505092915050565b60008060008060808587031215610a1a57610a19610edf565b5b6000610a2887828801610910565b9450506020610a3987828801610910565b9350506040610a4a87828801610910565b9250506060610a5b878288016109a9565b91505092959194509250565b60008060208385031215610a7e57610a7d610edf565b5b600083013567ffffffffffffffff811115610a9c57610a9b610eda565b5b610aa885828601610925565b92509250509250929050565b600060208284031215610aca57610ac9610edf565b5b600082015167ffffffffffffffff811115610ae857610ae7610eda565b5b610af48482850161097b565b91505092915050565b600060208284031215610b1357610b12610edf565b5b6000610b21848285016109a9565b91505092915050565b6000610b368383610b42565b60208301905092915050565b610b4b81610d88565b82525050565b610b5a81610d88565b82525050565b6000610b6b82610d1a565b610b758185610d32565b9350610b8083610d0a565b8060005b83811015610bb1578151610b988882610b2a565b9750610ba383610d25565b925050600181019050610b84565b5085935050505092915050565b6000610bcb602683610d43565b9150610bd682610ef5565b604082019050919050565b6000610bee602083610d43565b9150610bf982610f44565b602082019050919050565b610c0d81610dba565b82525050565b6000602082019050610c286000830184610b51565b92915050565b60006020820190508181036000830152610c4781610bbe565b9050919050565b60006020820190508181036000830152610c6781610be1565b9050919050565b6000602082019050610c836000830184610c04565b92915050565b6000604082019050610c9e6000830185610c04565b8181036020830152610cb08184610b60565b90509392505050565b6000610cc3610cd4565b9050610ccf8282610dc4565b919050565b6000604051905090565b600067ffffffffffffffff821115610cf957610cf8610e9c565b5b602082029050602081019050919050565b6000819050602082019050919050565b600081519050919050565b6000602082019050919050565b600082825260208201905092915050565b600082825260208201905092915050565b6000610d5f82610dba565b9150610d6a83610dba565b925082821015610d7d57610d7c610e3e565b5b828203905092915050565b6000610d9382610d9a565b9050919050565b600073ffffffffffffffffffffffffffffffffffffffff82169050919050565b6000819050919050565b610dcd82610ee4565b810181811067ffffffffffffffff82111715610dec57610deb610e9c565b5b80604052505050565b6000610e0082610dba565b91507fffffffffffffffffffffffffffffffffffffffffffffffffffffffffffffffff821415610e3357610e32610e3e565b5b600182019050919050565b7f4e487b7100000000000000000000000000000000000000000000000000000000600052601160045260246000fd5b7f4e487b7100000000000000000000000000000000000000000000000000000000600052603260045260246000fd5b7f4e487b7100000000000000000000000000000000000000000000000000000000600052604160045260246000fd5b600080fd5b600080fd5b600080fd5b600080fd5b600080fd5b6000601f19601f8301169050919050565b7f4f776e61626c653a206e6577206f776e657220697320746865207a65726f206160008201527f6464726573730000000000000000000000000000000000000000000000000000602082015250565b7f4f776e61626c653a2063616c6c6572206973206e6f7420746865206f776e6572600082015250565b610f7681610d88565b8114610f8157600080fd5b50565b610f8d81610dba565b8114610f9857600080fd5b5056fea264697066735822122056e254620f7fe768682484d70bf060ffc56595a2e89190a295fdbc483632517464736f6c63430008070033",
  "linkReferences": {},
  "deployedLinkReferences": {}
}